:100000000000032029C201000DC20100C5C101008A
:10001000C5C10100C5C10100C5C10100C5C10100C4
:10002000C5C10100C5C10100C5C101000DC201006B
:100030000DC20100C5C10100E5B601005DB90100B6
:100040000DC201000DC201000DC201000DC2010070
:100050000DC201000DC201000DC201000DC2010060
:100060000DC201000DC201000DC201000DC2010050
:100070000DC201000DC201000DC201000DC2010040
:100080000DC201000DC201000DC201000DC2010030
:100090000DC201000DC201000DC201000DC2010020
:1000A000C9810100258301000DC201000DC20100BC
:1000B0000DC201000DC201000DC2010085D4010076
:1000C0000DC2010049EA01000DC20100A5EB0100CB
:1000D0000DC20100D5EC01000DC201000DC20100EE
:1000E0000DC201000DC201000DC201000DC20100D0
:1000F0000DC201000DC201000DC201000DC20100C0
:100100000DC201000DC201000DC201000DC20100AF
:100110000DC20100B9D701000DC201000DC20100DE
:100120000DC201000DC201000DC201000DC201008F
:100130000DC201000DC201000DC201000DC201007F
:1001400031B401000DC2010005EE01000DC2010035
:100150000DC201000DC201000DC201000DC201005F
:100160000DC201000DC20100818401000DC2010019
:100170000DC201000DC201000DC201000DC201003F
:100180000DC201000DC201000DC201000DC201002F
:100190000DC201000DC2010035EF01000DC20100CA
:1001A0000DC201000DC201000DC201000DC201000F
:1001B0000DC201000DC201000DC201000DC20100FF
:1001C0000DC201000DC201000DC201000DC20100EF
:1001D000FFFFFFFFFFFFFFFFFFFFFFFFFFFFFFFF2F
:10040000FFFFFFFFFFFFFFFFFFFFFFFFDEF9FFFF23
:1004100010B5054C237833B9044B13B10448AFF33E
:1004200000800123237010BD00F0002000000000B8
:100430002C550200084B10B51BB108490848AFF312
:1004400000800848036803B910BD074B002BFBD0A0
:10045000BDE81040184700BF0000000004F0002075
:100460002C550200F4E9002000000000704700BF96
:1004700010B54FF4097104461CF09EF8204610BDDB
:1004800070B54FF06A522DED028B064643F2586369
:1004900008EE902A40F6DB72C0F202034FF61A050E
:1004A00040F6DA70C4F24902C2F20005C3F64920F0
:1004B00008EE102A336000240FE007EE904AF8EEB1
:1004C000E77A77EE807A67EEA87A67EE887A27EE89
:1004D000800A1EF079FF10EE100A21F0C7FD41ECF2
:1004E000100B1EF0BDFE00230022CCF2900351EC55
:1004F000100B21F00FFE41EC100B1EF0C5FE51EC6D
:10050000100B22F0DFF80134B4F5806FB6EE000A6C
:1005100025F8020FD1D14FF06A534FF21A0508EEB9
:10052000103AC2F20005002407EE904AF8EEE77A8E
:10053000013467EE887A17EE900A21F097FD9FED5F
:10054000140B41EC110B1FF013F8002351EC100BAE
:100550000022C3F6F07321F029FC00230022C4F22C
:10056000B00321F0D7FD22F0CDF821F07FFD41EC62
:10057000100B1EF089FE51EC100B22F0A3F8B4F51D
:10058000806F25F8020FCFD1BDEC028B304670BDD5
:100590000000000000000040704700BF10B54FF49D
:1005A000097104461CF008F8204610BD2DE9F04FF3
:1005B0004DF63456C2F200060A9D0B989DF8307035
:1005C000B6F800C043F27064C0F20204C5EB000A42
:1005D000002F18BF0C466FEA0C0B0AF1200A4DF6EB
:1005E00034194DF63438043A271FA1F1040E0FFADE
:1005F0008BFB4FEAAA1AC2F20009C2F200080026D9
:1006000027E0B4F5007F02D08CB3C943C9B239F8F2
:1006100011104CEA010101EBC00080B20BEA0004AA
:10062000E143C9B2241238F8111001F58061490084
:10063000E14010EA0C0F18BFC94357F8044F09985E
:1006400009B2013604EB8131402E03444EF8041FF9
:1006500010D052F8041F1944891301F44074554412
:10066000B4F5807FC9B2A8B2CBD1C943C9B239F8B9
:100670001110D0E7BDE8F08F2DE9F04F4DF634555D
:10068000C2F2000509982E880A9D9DF82C7043F24D
:100690007064C0F20204C0EB050E002F14BF0F46B9
:1006A00027466FEA06090EF1200E4DF634184DF676
:1006B000343C3C1F0D1F0FFA89F9FC374FEAAE1E80
:1006C000C2F20008C2F2000C2AE0BBF5007F04D0A1
:1006D000BBF1000F30D0C943C9B238F81110314313
:1006E00001EBCA0A1FFA8AFA09EA0A0B6FEA0B0140
:1006F000C9B24FEA2B2B3CF8111001F5806149007B
:100700001AEA060F21FA0BF154F804AF18BFC943D7
:1007100009B20AEB8131BC421A4445F8041F0ED0DD
:10072000911301F4407B7044BBF5807F1FFA80FA7F
:10073000C9B2CAD1C943C9B238F81110D0E7BDE86F
:10074000F08F00BF2DE9F04F4DF6345083B0C2F268
:1007500000000D9EB0F800C00C9C9DF840A00F9FBB
:100760000E980E9D019343F2706EC0F2020EC4EB20
:10077000060B6FEA0C06BAF1000F14BF8A46F24668
:1007800033B20BF1200B4DF634194DF63438AAF183
:10079000040600686D680093A1F1040E0AF1FC0ADA
:1007A0004FEAAB1B0137C2F20009C2F2000829E090
:1007B000B0F5007F02D098B3DB43DBB239F81330D9
:1007C0004CEA030303EBC101009B89B203EA010079
:1007D000C343DBB2001238F8133003F580635B00CB
:1007E000C34011EA0C0F18BFDB4356F8041F0198F1
:1007F0001BB29B031944564502444EF8041F284679
:1008000011D01D4643193B4113449B1303F4407020
:100810005C44B0F5807FDBB2A1B2C9D1DB43DBB26F
:1008200039F81330CEE70E9A1560536003B0BDE877
:10083000F08F00BF2DE9F04F44F2A07403EB4303A7
:10084000C0F2020404EBC3050646144689460FCDE8
:1008500091B00AAF0FC795E80300002387E80300B3
:10086000012704F160088DF8247007978DF8253072
:100870008DF826300AAD48E00AF1FF3101EB011195
:1008800006EB0111133121F00F0194E80140C0146F
:10089000C0F500706060BEF1000F3FD0BEF5FE7F76
:1008A0003EDA10AFBA441AF81CCCBCF1000F04D0E9
:1008B00012F1000C18BF4FF0010CC3F301123AB152
:1008C00010AF07EB020B1BF81CBCBBF1000F34D1BF
:1008D00003F0C003C02B02D11B9B0F2B41DDA3688B
:1008E000E2680190CDF808C0CDF800E03046FFF78F
:1008F000C3FE9DF81C300AF81C3CE368A26803EBB9
:100900008213E3601034A04514D055F8043B13F073
:10091000030A03F00402AFD14946B6E740F2FF1ED6
:10092000B0F5FE7FBDDB002AE7D110AB9A440AF890
:100930001C2CE2E711B0BDE8F08F013A02EB021285
:10094000E368CDF80CC006EB02120290CDF804E08B
:10095000A0680090133222F00F023046FFF726FE07
:10096000C7E71F46E268A36803971A9F0190CDF876
:1009700010C00297CDF800E03046FFF7E3FEB8E77D
:1009800000207047704700BF704700BF704700BF2E
:10099000704700BF10B504461AF000FD204610BD98
:1009A00000F0F703F52B06D0F92804D0EF2803D880
:1009B00000F0F00070470020704700BF10B50446FB
:1009C00022F07EFB01462046BDE810401DF040BEEF
:1009D00010B5044622F074FB014620461DF038FE97
:1009E00004464EF2C000C2F200001BF0ABF82044F7
:1009F00010BD00BF43F2EC70F8B51D21C0F202003B
:100A00001DF026FE41F2B853C2F20103FE21986C9C
:100A100003681B68984743F60C000F21C0F20200E0
:100A20001DF016FE41F6DC73C2F20103FE219B6C41
:100A30001A691F46501C1861117057F8106FBE429A
:100A400024BF1B611E464FF0010E4FF0000C5A6987
:100A5000B24202F1010113D0596110785A6B8F42F2
:100A60004FEA201598BF5B619C18511CBAB95A69AE
:100A700083F83050B242C3F834E002F10101EBD107
:100A800043F61C00C0F202000F211DF0E1FD4EF202
:100A9000C000C2F20000BDE8F8401BF053B80329C3
:100AA00084F830005963D2D1C3F830C0C3F834C0E1
:100AB000CDE700BF43F62C00F8B51821C0F20200C4
:100AC0001DF0C6FD41F2B853C2F20103FB21986C40
:100AD00003681B68984743F60C000F21C0F2020020
:100AE0001DF0B6FD41F6DC73C2F20103FB219B6CE5
:100AF0001A691F46501C1861117057F8106FBE42DA
:100B000024BF1B611E464FF0010E4FF0000C5A69C6
:100B1000B24202F1010113D0596110785A6B8F4231
:100B20004FEA201598BF5B619C18511CBAB95A69ED
:100B300083F83050B242C3F834E002F10101EBD146
:100B400043F61C00C0F202000F211DF081FD4EF2A1
:100B5000C000C2F20000BDE8F8401AF0F3BF03295C
:100B600084F830005963D2D1C3F830C0C3F834C020
:100B7000CDE700BF43F64800F8B51421C0F20200EB
:100B80001DF066FD41F2B853C2F20103FC21986CDE
:100B900003681B68984743F60C000F21C0F202005F
:100BA0001DF056FD41F6DC73C2F20103FC219B6C83
:100BB0001A691F46501C1861117057F8106FBE4219
:100BC00024BF1B611E464FF0010E4FF0000C5A6906
:100BD000B24202F1010113D0596110785A6B8F4271
:100BE0004FEA201598BF5B619C18511CBAB95A692D
:100BF00083F83050B242C3F834E002F10101EBD186
:100C000043F61C00C0F202000F211DF021FD4EF240
:100C1000C000C2F20000BDE8F8401AF093BF0329FB
:100C200084F830005963D2D1C3F830C0C3F834C05F
:100C3000CDE700BF43F66000F8B51521C0F2020011
:100C40001DF006FD41F2B853C2F20103FA21986C7F
:100C500003681B68984743F60C000F21C0F202009E
:100C60001DF0F6FC41F6DC73C2F20103FA219B6C25
:100C70001A691F46501C1861117057F8106FBE4258
:100C800024BF1B611E464FF0010E4FF0000C5A6945
:100C9000B24202F1010113D0596110785A6B8F42B0
:100CA0004FEA201598BF5B619C18511CBAB95A696C
:100CB00083F83050B242C3F834E002F10101EBD1C5
:100CC00043F61C00C0F202000F211DF0C1FC4EF2E1
:100CD000C000C2F20000BDE8F8401AF033BF03299B
:100CE00084F830005963D2D1C3F830C0C3F834C09F
:100CF000CDE700BF43F67800F8B51021C0F202003E
:100D000041F2E4641DF0A4FCC2F201044EF2C00002
:100D1000C2F200001AF016FF20680EF09DFD206858
:100D20000EF0A6FC20680EF0B7FC43F68C001B21E9
:100D3000C0F202001DF08CFC41F2B853C2F2010374
:100D4000FF21986C03681B68984743F60C000F213D
:100D5000C0F202001DF07CFC41F6DC73C2F201031C
:100D6000FF219B6C1A691F46501C1861117057F8BF
:100D7000106FBE4224BF1B611E464FF0010E4FF0A4
:100D8000000C5A69B24202F1010113D05961107886
:100D90005A6B8F424FEA201598BF5B619C18511C1B
:100DA000BAB95A6983F83050B242C3F834E002F15C
:100DB0000101EBD143F61C00C0F202000F211DF02F
:100DC00047FC4EF2C000C2F20000BDE8F8401AF045
:100DD000B9BE032984F830005963D2D1C3F830C0BA
:100DE000C3F834C0CDE700BF38B505464EF2C004A5
:100DF00043F6A800C2F200041E21C0F202001DF05A
:100E000027FC294600230A2220461AF0ADFE43F6AD
:100E1000C8000E21C0F202001DF01AFC41F2E0638E
:100E2000C2F201030A221978204600231AF09CFE20
:100E300043F6D8000121C0F202001DF009FC204653
:100E40001AF080FE002038BD2DE9F843044643F631
:100E5000DC001521C0F202001DF0FAFB210401F4B0
:100E6000FE0141F4734141F2007041F00201C2F20F
:100E7000010041F6DC7819F0CFF9C2F2010843F61F
:100E8000F4001421C0F202001DF0E2FBD8F8483053
:100E90001A699E46F321501C186111705EF8107F8C
:100EA000774524BF1B611F464FF0010C4FF000092E
:100EB0005A69BA4202F1010114D0596110785A6B93
:100EC0008E454FEA201698BF5B619D18511C002A81
:100ED00043D15A6983F83060BA42C3F834C002F192
:100EE0000101EAD1D8F848301A691F4604F07F049E
:100EF000511C1961147057F8106FBE4224BF1B615A
:100F00001E464FF0010E4FF0000C5A69B24202F13A
:100F1000010113D0596110785A6B8F424FEA2015A6
:100F200098BF5B619C18511C0ABB5A6983F830500A
:100F3000B242C3F834E002F10101EBD143F61C00E8
:100F4000C0F202000F211DF083FB4EF2C000C2F27E
:100F50000000BDE8F8431AF0F5BD032985F830001C
:100F60005963A5D1C3F83090C3F83490A0E70329A2
:100F700084F830005963C8D1C3F830C0C3F834C016
:100F8000C3E700BF43F60C1008B51021C0F2020001
:100F90001DF05EFB41F2B853C2F20103FA21986CD6
:100FA00003681B68984743F60C000F21C0F202004B
:100FB0001DF04EFB41F20070C2F201004FF60F210E
:100FC00019F02AF943F6F400C0F2020014211DF0D2
:100FD0003FFB4EF2C000C2F20000BDE808401AF02C
:100FE000B1BD00BF43F6201008B51321C0F20200C6
:100FF0001DF02EFB41F2B853C2F20103FB21986CA5
:1010000003681B68984743F60C000F21C0F20200EA
:101010001DF01EFB41F20070C2F201004FF60F31CD
:1010200019F0FAF843F6F400C0F2020014211DF0A2
:101030000FFB4EF2C000C2F20000BDE808401AF0FB
:1010400081BD00BF43F6341008B50F21C0F2020085
:101050001DF0FEFA41F2B853C2F20103FC21986C74
:1010600003681B68984743F60C000F21C0F202008A
:101070001DF0EEFA41F20070C2F201004FF60F418E
:1010800019F0CAF843F6F400C0F2020014211DF072
:10109000DFFA4EF2C000C2F20000BDE808401AF0CC
:1010A00051BD00BF43F6441008B51821C0F202003C
:1010B0001DF0CEFA41F2B853C2F20103FE21986C42
:1010C00003681B68984743F60C000F21C0F202002A
:1010D0001DF0BEFA41F20070C2F201004FF60F613E
:1010E00019F09AF843F6F400C0F2020014211DF042
:1010F000AFFA4EF2C000C2F20000BDE808401AF09C
:1011000021BD00BF43F66010F8B51821C0F20200FF
:101110001DF09EFA41F20070C2F201004FF60F611D
:1011200019F07AF843F6F4001421C0F202001DF021
:101130008FFA41F6DC73C2F20103FE219B6C1A693F
:101140001F46501C1861117057F8106FBE4224BF23
:101150001B611E464FF0010E4FF0000C5A6996427B
:1011600002F1010113D0596110785A6B8F424FEA96
:10117000201598BF5B619C18511CBAB95A6983F855
:1011800030509642C3F834E002F10101EBD143F64E
:101190001C00C0F202000F211DF05AFA4EF2C000EE
:1011A000C2F20000BDE8F8401AF0CCBC032984F874
:1011B00030005963D2D1C3F830C0C3F834C0CDE792
:1011C00043F67C10F8B50F21C0F202001DF040FA82
:1011D00041F20070C2F201004FF60F4119F01CF805
:1011E00043F6F4001421C0F202001DF031FA41F67A
:1011F000DC73C2F20103FC219B6C1A691F46501C70
:101200001861117057F8106FBE4224BF1B611E4653
:101210004FF0010E4FF0000C5A69964202F10101A5
:1012200013D0596110785A6B8F424FEA201598BF3E
:101230005B619C18511CBAB95A6983F830509642C8
:10124000C3F834E002F10101EBD143F61C00C0F217
:1012500002000F211DF0FCF94EF2C000C2F20000A6
:10126000BDE8F8401AF06EBC032984F830005963D9
:10127000D2D1C3F830C0C3F834C0CDE743F68C10E8
:10128000F8B51021C0F202001DF0E2F941F2007041
:10129000C2F201004FF60F2118F0BEFF43F6F40032
:1012A0001421C0F202001DF0D3F941F6DC73C2F242
:1012B0000103FA219B6C1A691F46501C18611170BA
:1012C00057F8106FBE4224BF1B611E464FF0010E3F
:1012D0004FF0000C5A69964202F1010113D0596196
:1012E00010785A6B8F424FEA201598BF5B619C18AB
:1012F000511CBAB95A6983F830509642C3F834E0A9
:1013000002F10101EBD143F61C00C0F202000F21F3
:101310001DF09EF94EF2C000C2F20000BDE8F84098
:101320001AF010BC032984F830005963D2D1C3F8F5
:1013300030C0C3F834C0CDE743F6A010F8B5132190
:10134000C0F202001DF084F941F20070C2F2010007
:101350004FF60F3118F060FF43F6F4001421C0F28D
:1013600002001DF075F941F6DC73C2F20103FB21A6
:101370009B6C1A691F46501C1861117057F8106F4A
:10138000BE4224BF1B611E464FF0010E4FF0000C01
:101390005A69964202F1010113D0596110785A6BD3
:1013A0008F424FEA201598BF5B619C18511CBAB957
:1013B0005A6983F830509642C3F834E002F10101D3
:1013C000EBD143F61C00C0F202000F211DF040F9E2
:1013D0004EF2C000C2F20000BDE8F8401AF0B2BB05
:1013E000032984F830005963D2D1C3F830C0C3F860
:1013F00034C0CDE743F67800F8B51021C0F2020002
:1014000041F2E4641DF024F9C2F201044EF2C0007E
:10141000C2F200001AF096FB20680EF01DFA206858
:101420000EF026F920680EF037F943F6B4101621B5
:10143000C0F202001DF00CF941F20070C2F201008E
:101440004FF60F7118F0E8FE43F6F4001421C0F2D5
:1014500002001DF0FDF841F6DC73C2F20103FF212A
:101460009B6C1A691F46501C1861117057F8106F59
:10147000BE4224BF1B611E464FF0010E4FF0000C10
:101480005A69964202F1010113D0596110785A6BE2
:101490008F424FEA201598BF5B619C18511CBAB966
:1014A0005A6983F830509642C3F834E002F10101E2
:1014B000EBD143F61C00C0F202000F211DF0C8F86A
:1014C0004EF2C000C2F20000BDE8F8401AF03ABB8C
:1014D000032984F830005963D2D1C3F830C0C3F86F
:1014E00034C0CDE72DE9F843044643F6CC101F2164
:1014F000C0F202001DF0ACF804F00F034FF202112D
:101500001B04C0F2100141F200701943C2F2010045
:1015100041F6DC7818F080FEC2F2010843F6F400D0
:101520001421C0F202001DF093F8D8F848301A696F
:101530009E46F121501C186111705EF8107F7745AE
:1015400024BF1B611F464FF0010C4FF000095A6980
:10155000BA4202F1010114D0596110785A6B8E45DC
:101560004FEA201698BF5B619D18511C002A41D19B
:101570005A6983F83060BA42C3F834C002F10101FD
:10158000EAD1D8F848301A691F46511C1961147005
:1015900057F8106FBE4224BF1B611E464FF0010E6C
:1015A0004FF0000C5A69B24202F1010113D05961A7
:1015B00010785A6B8F424FEA201598BF5B619C18D8
:1015C000511C0ABB5A6983F83050B242C3F834E068
:1015D00002F10101EBD143F61C00C0F202000F2121
:1015E0001DF036F84EF2C000C2F20000BDE8F8432C
:1015F0001AF0A8BA032985F830005963A7D1C3F8B7
:101600003090C3F83490A2E7032984F8300059637E
:10161000C8D1C3F830C0C3F834C0C3E743F6EC10F8
:1016200008B51621C0F202001DF012F841F2B853BD
:10163000C2F20103F621986C0368DB6C984743F60D
:101640000C000F21C0F202001DF002F841F2007000
:10165000C2F201004FF20F6118F0DEFD43F6F40014
:10166000C0F2020014211CF0F3FF4EF2C000C2F2DF
:101670000000BDE808401AF065BA00BF38B543F66F
:1016800078004EF2C00541F2E4641021C2F2010478
:10169000C2F20005C0F202001CF0DAFF28461AF080
:1016A00051FA20680EF0D8F820680DF0E1FF2068AC
:1016B0000DF0F2FF43F604201621C0F202001CF0E8
:1016C000C7FF41F2B853C2F20103FF21986C0368CF
:1016D0001B68984743F60C000F21C0F202001CF073
:1016E000B7FF41F20070C2F201004FF60F7118F01F
:1016F00093FD43F6F400C0F2020014211CF0A8FF91
:101700002846BDE838401AF01DBA00BFF8B50646B5
:1017100043F61C200C46C0F20200122115461CF0B4
:1017200097FF711EC9B20F2915D841F2B857C2F2FE
:10173000010741F0A001B86C03681B689847B86CBA
:10174000036804F07F011B689847B86C036805F0D4
:101750007F011B68984743F630200A21C0F202003F
:101760001CF076FF6B1E1B02240404F4FE0403F439
:1017700070632343310143F4504343F00D03C9B276
:1017800041F200701943C2F2010018F045FD43F622
:10179000F400C0F2020014211CF05AFF4EF2C00007
:1017A000C2F20000BDE8F8401AF0CCB943F63C2084
:1017B000F8B51621C0F202001CF04AFF41F2007099
:1017C000C2F201004FF20F6118F026FD43F6F4005B
:1017D0001421C0F202001CF03BFF41F6DC73C2F2A0
:1017E0000103F6219B6C1A691F46501C1861117089
:1017F00057F8106FBE4224BF1B611E464FF0010E0A
:101800004FF0000C5A69B24202F1010113D0596144
:1018100010785A6B8F424FEA201598BF5B619C1875
:10182000511CBAB95A6983F83050B242C3F834E057
:1018300002F10101EBD143F61C00C0F202000F21BE
:101840001CF006FF4EF2C000C2F20000BDE8F840F6
:101850001AF078B9032984F830005963D2D1C3F85B
:1018600030C0C3F834C0CDE7F8B541F2E063C2F24E
:1018700001030E461B781446054623B1984202D058
:10188000FFF7B2FA38B141F2E463C2F20103314624
:1018900018680DF0BBFD43F654201221013DC0F243
:1018A00002001CF0D5FEE9B20F2915D841F2B85755
:1018B000C2F2010741F08001B86C03681B689847C9
:1018C000B86C036806F07F011B689847B86C036822
:1018D00004F07F011B68984743F60C000F21C0F20B
:1018E00002001CF0B5FE230603F0FE43310443F46E
:1018F000004301F4FE012D0243F008030B4341F2C3
:10190000007005F470611943C2F2010018F084FC04
:1019100043F6F400C0F2020014211CF099FE4EF2CE
:10192000C000C2F20000BDE8F8401AF00BB900BFD9
:10193000F8B541F2E463C2F2010305461B6801F504
:10194000005643F668200C46013D0D21C3F8C060E7
:10195000C0F202001CF07CFEE9B20F2915D841F25A
:10196000B857C2F2010741F0E001B86C03681B6888
:101970009847B86C036806F07F011B689847B86CFD
:101980000368C6F3C6111B68984743F60C0004F3BE
:101990000D040F2104F50054C0F202001CF058FEA3
:1019A0002902230403F4FE0301F47061194341F496
:1019B0006041640404F0FE4441F00E0141F2007005
:1019C0002143C2F2010018F027FC43F6F400C0F2F4
:1019D000020014211CF03CFE4EF2C000C2F20000D6
:1019E000BDE8F8401AF0AEB81F2970B50C460546A0
:1019F00008D840F26853C2F2010318780EF03CFE9A
:101A00000AF0B6FC43F678200D21013DC0F2020039
:101A10001CF01EFEE9B20F290FD841F2B856C2F2EF
:101A2000010641F0C001B06C03681B689847B06CB8
:101A3000036804F07F011B68984743F60C000F21F0
:101A4000C0F202001CF004FE230403F4FE0329028A
:101A500043F4404343F00C0301F4706141F2007021
:101A60001943C2F2010018F0D7FB43F6F400C0F2AC
:101A7000020014211CF0ECFD4EF2C000C2F2000086
:101A8000BDE870401AF05EB8F8B541F2E063C2F20A
:101A900001030E461B781446054623B1984202D036
:101AA000FFF7A2F940B141F2E463C2F2010322461A
:101AB000186831460DF06AFA43F688201121013D7D
:101AC000C0F202001CF0C4FDE9B20F2915D841F2A2
:101AD000B857C2F2010741F09001B86C03681B6867
:101AE0009847B86C036806F07F011B689847B86C8C
:101AF000036804F07F011B68984743F60C000F2130
:101B0000C0F202001CF0A4FD230603F0FE433104E2
:101B100043F4104301F4FE012D0243F009030B438B
:101B200041F2007005F470611943C2F2010018F02F
:101B300073FB43F6F400C0F2020014211CF088FD90
:101B40004EF2C000C2F20000BDE8F84019F0FABF42
:101B5000F0B54AF23472C2F2010283B040F250632F
:101B600011680091C2F2010300991E681268019287
:101B700041F2BC65C2F2010541F2B452C2F2010267
:101B8000891B43F69C204EF2C004C2F20004019F60
:101B9000298000260C21C0F2020016701F601CF084
:101BA00057FD2B8820464EF6602191FBF3F119F08A
:101BB0006BFF43F6AC200521C0F202001CF048FD8B
:101BC0002988204619F060FF43F6B4200F21C0F2A7
:101BD00002001CF03DFD204619F0B4FF03B0F0BD3B
:101BE00008B541F2B451C2F201014AF6AB230A78BA
:101BF0000132D2B2CAF6AA23A3FB02031B0903EBEC
:101C00004303A2EBC30313F0FF0F0A7001D1FFF7E8
:101C10009FFF43F6C4201021C0F202001CF018FD03
:101C200041F2B853C2F20103F821986C03681B68B3
:101C3000984743F60C000F21C0F202001CF008FD8B
:101C400041F20070C2F201004FF60F0118F0E4FA01
:101C500043F6F400C0F2020014211CF0F9FC4EF22D
:101C6000C000C2F20000BDE8084019F06BBF00BF21
:101C7000F8B541F2B451C2F201014AF6AB230A7839
:101C80000132D2B2CAF6AA23A3FB02031B0903EB5B
:101C90004303A2EBC30313F0FF0F0A7001D1FFF758
:101CA00057FF43F6D8201021C0F202001CF0D0FCF0
:101CB00041F20070C2F201004FF60F0118F0ACFAC9
:101CC00043F6F4001421C0F202001CF0C1FC41F6FE
:101CD000DC73C2F20103F8219B6C1A691F46501C89
:101CE0001861117057F8106FBE4224BF1B611E4669
:101CF0004FF0010E4FF0000C5A69964202F10101BB
:101D000013D0596110785A6B8F424FEA201598BF53
:101D10005B619C18511CBAB95A6983F830509642DD
:101D2000C3F834E002F10101EBD143F61C00C0F22C
:101D300002000F211CF08CFC4EF2C000C2F2000029
:101D4000BDE8F84019F0FEBE032984F8300059635D
:101D5000D2D1C3F830C0C3F834C0CDE7F8B541F2F2
:101D6000B451C2F201014AF6AB230A780132D2B271
:101D7000CAF6AA23A3FB02031B0903EB4303A2EB4E
:101D8000C30313F0FF0F0A7001D1FFF7E1FE43F622
:101D9000EC201521C0F202001CF05AFC41F2B853AD
:101DA000C2F20103F821986C03681B68984743F658
:101DB0000C000F21C0F202001CF04AFC41F6DC735B
:101DC000C2F20103F8219B6C1A691F46501C18616E
:101DD000117057F8106FBE4224BF1B611E464FF0B2
:101DE000010E4FF0000C5A69B24202F1010113D00A
:101DF000596110785A6B8F424FEA201598BF5B618A
:101E00009C18511CBAB95A6983F83050B242C3F8D1
:101E100034E002F10101EBD143F61C00C0F20200F4
:101E20000F211CF015FC4EF2C000C2F20000BDE80C
:101E3000F84019F087BE032984F830005963D2D1E5
:101E4000C3F830C0C3F834C0CDE700BF43F6043058
:101E5000F8B51B21C0F202001CF0FAFB41F2B853A6
:101E6000C2F20103F621986C0368DB6C984743F6D5
:101E70000C000F21C0F202001CF0EAFB41F6DC73FB
:101E8000C2F20103F6219B6C1A691F46501C1861AF
:101E9000117057F8106FBE4224BF1B611E464FF0F1
:101EA000010E4FF0000C5A69B24202F1010113D049
:101EB000596110785A6B8F424FEA201598BF5B61C9
:101EC0009C18511CBAB95A6983F83050B242C3F811
:101ED00034E002F10101EBD143F61C00C0F2020034
:101EE0000F211CF0B5FB4EF2C000C2F20000BDE8AD
:101EF000F84019F027BE032984F830005963D2D185
:101F0000C3F830C0C3F834C0CDE700BF2DE9F843B3
:101F100041F2B8550446C2F2010543F620302421AF
:101F2000C0F202001CF094FBA86C0368F1211B684E
:101F30009847A86C036821461B6841F6DC789847EF
:101F4000C2F2010843F60C000F21C0F202001CF09F
:101F50007FFBD8F848301A699E46F121501C186161
:101F600011705EF8107F774524BF1B611F464FF04C
:101F7000010C4FF000095A69BA4202F1010114D074
:101F8000596110785A6B8E454FEA201698BF5B61F5
:101F90009D18511C002A41D15A6983F83060BA4219
:101FA000C3F834C002F10101EAD1D8F848301A6907
:101FB0001F46511C1961147057F8106FBE4224BFA0
:101FC0001B611E464FF0010E4FF0000C5A69B242E1
:101FD00002F1010113D0596110785A6B8F424FEA18
:101FE000201598BF5B619C18511C0ABB5A6983F885
:101FF0003050B242C3F834E002F10101EBD143F6B4
:102000001C00C0F202000F211CF022FB4EF2C000A7
:10201000C2F20000BDE8F84319F094BD032985F829
:1020200030005963A7D1C3F83090C3F83490A2E7C9
:10203000032984F830005963C8D1C3F830C0C3F80D
:1020400034C0C3E72DE9F84341F2B8540746C2F261
:10205000010443F648301A21C0F202001CF0F8FADD
:10206000A06C0368F3211B689847A06C036807F015
:102070007F07DB6C394641F6DC789847C2F20108ED
:1020800043F60C000F21C0F202001CF0E1FAD8F870
:1020900048301A699E46501CF321186111705EF891
:1020A000100F704524BF1B6118464FF0010C4FF014
:1020B00000095A69824202F1010114D05961147871
:1020C0005A6B8E454FEA241698BF5B619D18511CD0
:1020D000002A3FD15A6983F830608242C3F834C085
:1020E00002F10101EAD1D8F848301A699E46511C24
:1020F000196117705EF8106F764524BF1B611E468C
:1021000001274FF0000C5A69B24202F1010112D0CE
:10211000596110785A6B8E454FEA201598BF5B6164
:102120009C18511C02BB5A6983F83050B2425F635D
:1021300002F10101ECD143F61C00C0F202000F21B4
:102140001CF086FA4EF2C000C2F20000BDE8F8436F
:1021500019F0F8BC032985F830405963A9D1C3F8B8
:102160003090C3F83490A4E7032984F83000596311
:10217000C9D1C3F830C0C3F834C0C4E738B541F2A0
:10218000B8550446C2F2010543F664301521C0F289
:1021900002001CF05DFAA86C0368F3211B689847E5
:1021A000A86C036804F07F01DB6C984743F60C00D1
:1021B0000F21C0F202001CF04BFA210401F4FE01D1
:1021C00041F4734141F2007041F00201C2F201009A
:1021D00018F022F843F6F400C0F2020014211CF0BB
:1021E00037FA4EF2C000C2F20000BDE8384019F0E4
:1021F000A9BC00BF38B541F2B8550446C2F201058A
:1022000043F67C301F21C0F202001CF021FAA86CBA
:102210000368F1211B689847A86C036821461B6876
:10222000984743F60C000F21C0F2020004F00F049F
:102230001CF00EFA44F010044FF2021141F200704B
:1022400041EA0441C2F2010017F0E6FF43F6F40050
:10225000C0F2020014211CF0FBF94EF2C000C2F2E1
:102260000000BDE8384019F06DBC00BF1F292DE902
:10227000F8430F46044608D840F26853C2F20103FF
:1022800018780EF0F9F90AF073F843F69C30C0F2B2
:10229000020012211CF0DCF9601EC0B20F2800F20F
:1022A000938041F2B855C2F2010540F0C004A86C19
:1022B000036821461B689847A86C036807F07F07EE
:1022C0001B683946984743F60C000F21C0F2020004
:1022D0001CF0BEF941F6DC7CC2F2010C4FF00108A3
:1022E000DCF848301A699E46511C196114705EF87A
:1022F000101F714524BF1B6119464FF000095A6930
:102300008A4202F1010014D0586114785A6B864554
:102310004FEA241698BF5B619D18501C002A3FD1DC
:102320005A6983F830608A42C3F8348002F10100B0
:10233000EAD1DCF848301A699E46511C19611770C1
:102340005EF8106F764524BF1B611E4601274FF0D3
:10235000000C5A69964202F1010112D059611078BD
:102360005A6B8E454FEA201598BF5B619C18511C33
:1023700002BB5A6983F8305096425F6302F1010153
:10238000ECD143F61C00C0F202000F211CF060F9F2
:102390004EF2C000C2F20000BDE8F84319F0D2BB13
:1023A000032885F830405863A9D1C3F83090C3F8AA
:1023B0003490A4E7032984F830005963C9D1C3F8E5
:1023C00030C0C3F834C0C4E743F60C000F21C0F29C
:1023D00002001CF03DF9D4E71F292DE9F8430D4612
:1023E000044608D840F26853C2F2010318780EF090
:1023F00043F909F0BDFF43F6B0300D21C0F20200F1
:102400001CF026F92B04013C03F4FE03210243F4E3
:10241000404343F00C0301F4706141F20070194332
:10242000C2F2010017F0F8FE43F6F400C0F2020019
:102430001421E4B21CF00CF90F2C5BD841F6DC7EC1
:10244000C2F2010E64F03F04DEF848301A699C467F
:10245000511C196114705CF8107F674505F07F0806
:1024600024BF1B611F4601254FF000095A6997429E
:1024700002F1010113D0596110785A6B8C454FEA73
:10248000201698BF5B619C18511C002A41D15A69E3
:1024900083F8306097425D6302F10101EBD1DEF811
:1024A00048301A691F46511C196182F8008057F89C
:1024B000106FBE4224BF1B611E464FF0010E4FF04D
:1024C000000C5A69964202F1010113D0596110784B
:1024D0005A6B8F424FEA201598BF5B619C18511CC4
:1024E0000ABB5A6983F830509642C3F834E002F1CF
:1024F0000101EBD143F61C00C0F202000F211CF0D9
:10250000A7F84EF2C000C2F20000BDE8F84319F08F
:1025100019BB032984F830005963A7D1C3F8309060
:10252000C3F83490A2E7032984F830005963C8D176
:10253000C3F830C0C3F834C0C3E700BF4AF28853C1
:10254000C2F2010310B4D3F8C020136850681978A0
:102550000478507A137A044201EA03011AD0937A7C
:1025600003F0030309B143F0040343F00803991097
:10257000082B91722AD8072B22D2032B2ED011D9E7
:10258000042B13D0062B14D1D3685DF8044B023B07
:10259000D3607047937A03F003030029E7D043F038
:1025A0000403E4E7012B0BD0022B02D1D368013BDB
:1025B000D3605DF8044B70470D2BF7D00E2BF8D18C
:1025C000D3685DF8044B0133D36070470C2B05D002
:1025D000F2D8092BD8D00B2BE8D0EAE7D3685DF806
:1025E000044B0233D36070474AF28853C2F20103AE
:1025F00010B4D3F8C4201368506819780478507A5E
:10260000137A044201EA03011AD0937A03F0030318
:1026100009B143F0040343F008039910082B9172A9
:102620002AD8072B22D2032B2ED011D9042B13D05A
:10263000062B14D1D3685DF8044B023BD36070477E
:10264000937A03F003030029E7D043F00403E4E79F
:10265000012B0BD0022B02D1D368013BD3605DF874
:10266000044B70470D2BF7D00E2BF8D1D3685DF8D3
:10267000044B0133D36070470C2B05D0F2D8092BE3
:10268000D8D00B2BE8D0EAE7D3685DF8044B0233CF
:10269000D36070474AF28853C2F2010310B4D3F8F2
:1026A000C8201368506819780478507A137A044265
:1026B00001EA03011AD0937A03F0030309B143F04E
:1026C000040343F008039910082B91722AD8072BB2
:1026D00022D2032B2ED011D9042B13D0062B14D1C8
:1026E000D3685DF8044B023BD3607047937A03F0E4
:1026F00003030029E7D043F00403E4E7012B0BD0E8
:10270000022B02D1D368013BD3605DF8044B7047C4
:102710000D2BF7D00E2BF8D1D3685DF8044B0133A5
:10272000D36070470C2B05D0F2D8092BD8D00B2BD7
:10273000E8D0EAE7D3685DF8044B0233D360704712
:102740004AF28853C2F2010310B4D3F8CC201368C4
:10275000506819780478507A137A044201EA030128
:102760001AD0937A03F0030309B143F0040343F052
:1027700008039910082B91722AD8072B22D2032B19
:102780002ED011D9042B13D0062B14D1D3685DF8A9
:10279000044B023BD3607047937A03F00303002994
:1027A000E7D043F00403E4E7012B0BD0022B02D166
:1027B000D368013BD3605DF8044B70470D2BF7D015
:1027C0000E2BF8D1D3685DF8044B0133D36070470A
:1027D0000C2B05D0F2D8092BD8D00B2BE8D0EAE788
:1027E000D3685DF8044B0233D36070474AF28853D4
:1027F000C2F2010310B4D3F8D020136850681978DE
:102800000478507A137A044201EA03011AD0937AC9
:1028100003F0030309B143F0040343F008039910E4
:10282000082B91722AD8072B22D2032B2ED011D934
:10283000042B13D0062B14D1D3685DF8044B023B54
:10284000D3607047937A03F003030029E7D043F085
:102850000403E4E7012B0BD0022B02D1D368013B28
:10286000D3605DF8044B70470D2BF7D00E2BF8D1D9
:10287000D3685DF8044B0133D36070470C2B05D04F
:10288000F2D8092BD8D00B2BE8D0EAE7D3685DF853
:10289000044B0233D36070474AF28853C2F20103FB
:1028A00010B4D3F8D4201368506819780478507A9B
:1028B000137A044201EA03011AD0937A03F0030366
:1028C00009B143F0040343F008039910082B9172F7
:1028D0002AD8072B22D2032B2ED011D9042B13D0A8
:1028E000062B14D1D3685DF8044B023BD3607047CC
:1028F000937A03F003030029E7D043F00403E4E7ED
:10290000012B0BD0022B02D1D368013BD3605DF8C1
:10291000044B70470D2BF7D00E2BF8D1D3685DF820
:10292000044B0133D36070470C2B05D0F2D8092B30
:10293000D8D00B2BE8D0EAE7D3685DF8044B02331C
:10294000D36070474AF28853C2F2010310B4D3F83F
:10295000D8201368506819780478507A137A0442A2
:1029600001EA03011AD0937A03F0030309B143F09B
:10297000040343F008039910082B91722AD8072BFF
:1029800022D2032B2ED011D9042B13D0062B14D115
:10299000D3685DF8044B023BD3607047937A03F031
:1029A00003030029E7D043F00403E4E7012B0BD035
:1029B000022B02D1D368013BD3605DF8044B704712
:1029C0000D2BF7D00E2BF8D1D3685DF8044B0133F3
:1029D000D36070470C2B05D0F2D8092BD8D00B2B25
:1029E000E8D0EAE7D3685DF8044B0233D360704760
:1029F0004AF28853C2F2010310B4D3F8DC20136802
:102A0000506819780478507A137A044201EA030175
:102A10001AD0937A03F0030309B143F0040343F09F
:102A200008039910082B91722AD8072B22D2032B66
:102A30002ED011D9042B13D0062B14D1D3685DF8F6
:102A4000044B023BD3607047937A03F003030029E1
:102A5000E7D043F00403E4E7012B0BD0022B02D1B3
:102A6000D368013BD3605DF8044B70470D2BF7D062
:102A70000E2BF8D1D3685DF8044B0133D360704757
:102A80000C2B05D0F2D8092BD8D00B2BE8D0EAE7D5
:102A9000D3685DF8044B0233D36070474AF2885321
:102AA000C2F2010310B4D3F880201368506819787B
:102AB0000478507A137A044201EA03011AD0937A17
:102AC00003F0030309B143F0040343F00803991032
:102AD000082B91722AD8072B22D2032B2ED011D982
:102AE000042B13D0062B14D1D3685DF8044B023BA2
:102AF000D3607047937A03F003030029E7D043F0D3
:102B00000403E4E7012B0BD0022B02D1D368013B75
:102B1000D3605DF8044B70470D2BF7D00E2BF8D126
:102B2000D3685DF8044B0133D36070470C2B05D09C
:102B3000F2D8092BD8D00B2BE8D0EAE7D3685DF8A0
:102B4000044B0233D36070474AF28853C2F2010348
:102B500010B4D3F884201368506819780478507A38
:102B6000137A044201EA03011AD0937A03F00303B3
:102B700009B143F0040343F008039910082B917244
:102B80002AD8072B22D2032B2ED011D9042B13D0F5
:102B9000062B14D1D3685DF8044B023BD360704719
:102BA000937A03F003030029E7D043F00403E4E73A
:102BB000012B0BD0022B02D1D368013BD3605DF80F
:102BC000044B70470D2BF7D00E2BF8D1D3685DF86E
:102BD000044B0133D36070470C2B05D0F2D8092B7E
:102BE000D8D00B2BE8D0EAE7D3685DF8044B02336A
:102BF000D36070474AF28853C2F2010310B4D3F88D
:102C000088201368506819780478507A137A04423F
:102C100001EA03011AD0937A03F0030309B143F0E8
:102C2000040343F008039910082B91722AD8072B4C
:102C300022D2032B2ED011D9042B13D0062B14D162
:102C4000D3685DF8044B023BD3607047937A03F07E
:102C500003030029E7D043F00403E4E7012B0BD082
:102C6000022B02D1D368013BD3605DF8044B70475F
:102C70000D2BF7D00E2BF8D1D3685DF8044B013340
:102C8000D36070470C2B05D0F2D8092BD8D00B2B72
:102C9000E8D0EAE7D3685DF8044B0233D3607047AD
:102CA0004AF28853C2F2010310B4D3F88C2013689F
:102CB000506819780478507A137A044201EA0301C3
:102CC0001AD0937A03F0030309B143F0040343F0ED
:102CD00008039910082B91722AD8072B22D2032BB4
:102CE0002ED011D9042B13D0062B14D1D3685DF844
:102CF000044B023BD3607047937A03F0030300292F
:102D0000E7D043F00403E4E7012B0BD0022B02D100
:102D1000D368013BD3605DF8044B70470D2BF7D0AF
:102D20000E2BF8D1D3685DF8044B0133D3607047A4
:102D30000C2B05D0F2D8092BD8D00B2BE8D0EAE722
:102D4000D3685DF8044B0233D36070474AF288536E
:102D5000C2F2010310B4D3F89020136850681978B8
:102D60000478507A137A044201EA03011AD0937A64
:102D700003F0030309B143F0040343F0080399107F
:102D8000082B91722AD8072B22D2032B2ED011D9CF
:102D9000042B13D0062B14D1D3685DF8044B023BEF
:102DA000D3607047937A03F003030029E7D043F020
:102DB0000403E4E7012B0BD0022B02D1D368013BC3
:102DC000D3605DF8044B70470D2BF7D00E2BF8D174
:102DD000D3685DF8044B0133D36070470C2B05D0EA
:102DE000F2D8092BD8D00B2BE8D0EAE7D3685DF8EE
:102DF000044B0233D36070474AF28853C2F2010396
:102E000010B4D3F894201368506819780478507A75
:102E1000137A044201EA03011AD0937A03F0030300
:102E200009B143F0040343F008039910082B917291
:102E30002AD8072B22D2032B2ED011D9042B13D042
:102E4000062B14D1D3685DF8044B023BD360704766
:102E5000937A03F003030029E7D043F00403E4E787
:102E6000012B0BD0022B02D1D368013BD3605DF85C
:102E7000044B70470D2BF7D00E2BF8D1D3685DF8BB
:102E8000044B0133D36070470C2B05D0F2D8092BCB
:102E9000D8D00B2BE8D0EAE7D3685DF8044B0233B7
:102EA000D36070474AF28853C2F2010310B4D3F8DA
:102EB00098201368506819780478507A137A04427D
:102EC00001EA03011AD0937A03F0030309B143F036
:102ED000040343F008039910082B91722AD8072B9A
:102EE00022D2032B2ED011D9042B13D0062B14D1B0
:102EF000D3685DF8044B023BD3607047937A03F0CC
:102F000003030029E7D043F00403E4E7012B0BD0CF
:102F1000022B02D1D368013BD3605DF8044B7047AC
:102F20000D2BF7D00E2BF8D1D3685DF8044B01338D
:102F3000D36070470C2B05D0F2D8092BD8D00B2BBF
:102F4000E8D0EAE7D3685DF8044B0233D3607047FA
:102F50004AF28853C2F2010310B4D3F89C201368DC
:102F6000506819780478507A137A044201EA030110
:102F70001AD0937A03F0030309B143F0040343F03A
:102F800008039910082B91722AD8072B22D2032B01
:102F90002ED011D9042B13D0062B14D1D3685DF891
:102FA000044B023BD3607047937A03F0030300297C
:102FB000E7D043F00403E4E7012B0BD0022B02D14E
:102FC000D368013BD3605DF8044B70470D2BF7D0FD
:102FD0000E2BF8D1D3685DF8044B0133D3607047F2
:102FE0000C2B05D0F2D8092BD8D00B2BE8D0EAE770
:102FF000D3685DF8044B0233D36070474AF28853BC
:10300000C2F2010310B4D3F8A020136850681978F5
:103010000478507A137A044201EA03011AD0937AB1
:1030200003F0030309B143F0040343F008039910CC
:10303000082B91722AD8072B22D2032B2ED011D91C
:10304000042B13D0062B14D1D3685DF8044B023B3C
:10305000D3607047937A03F003030029E7D043F06D
:103060000403E4E7012B0BD0022B02D1D368013B10
:10307000D3605DF8044B70470D2BF7D00E2BF8D1C1
:10308000D3685DF8044B0133D36070470C2B05D037
:10309000F2D8092BD8D00B2BE8D0EAE7D3685DF83B
:1030A000044B0233D36070474AF28853C2F20103E3
:1030B00010B4D3F8A4201368506819780478507AB3
:1030C000137A044201EA03011AD0937A03F003034E
:1030D00009B143F0040343F008039910082B9172DF
:1030E0002AD8072B22D2032B2ED011D9042B13D090
:1030F000062B14D1D3685DF8044B023BD3607047B4
:10310000937A03F003030029E7D043F00403E4E7D4
:10311000012B0BD0022B02D1D368013BD3605DF8A9
:10312000044B70470D2BF7D00E2BF8D1D3685DF808
:10313000044B0133D36070470C2B05D0F2D8092B18
:10314000D8D00B2BE8D0EAE7D3685DF8044B023304
:10315000D36070474AF28853C2F2010310B4D3F827
:10316000A8201368506819780478507A137A0442BA
:1031700001EA03011AD0937A03F0030309B143F083
:10318000040343F008039910082B91722AD8072BE7
:1031900022D2032B2ED011D9042B13D0062B14D1FD
:1031A000D3685DF8044B023BD3607047937A03F019
:1031B00003030029E7D043F00403E4E7012B0BD01D
:1031C000022B02D1D368013BD3605DF8044B7047FA
:1031D0000D2BF7D00E2BF8D1D3685DF8044B0133DB
:1031E000D36070470C2B05D0F2D8092BD8D00B2B0D
:1031F000E8D0EAE7D3685DF8044B0233D360704748
:103200004AF28853C2F2010310B4D3F8AC20136819
:10321000506819780478507A137A044201EA03015D
:103220001AD0937A03F0030309B143F0040343F087
:1032300008039910082B91722AD8072B22D2032B4E
:103240002ED011D9042B13D0062B14D1D3685DF8DE
:10325000044B023BD3607047937A03F003030029C9
:10326000E7D043F00403E4E7012B0BD0022B02D19B
:10327000D368013BD3605DF8044B70470D2BF7D04A
:103280000E2BF8D1D3685DF8044B0133D36070473F
:103290000C2B05D0F2D8092BD8D00B2BE8D0EAE7BD
:1032A000D3685DF8044B0233D36070474AF2885309
:1032B000C2F2010310B4D3F8B02013685068197833
:1032C0000478507A137A044201EA03011AD0937AFF
:1032D00003F0030309B143F0040343F0080399101A
:1032E000082B91722AD8072B22D2032B2ED011D96A
:1032F000042B13D0062B14D1D3685DF8044B023B8A
:10330000D3607047937A03F003030029E7D043F0BA
:103310000403E4E7012B0BD0022B02D1D368013B5D
:10332000D3605DF8044B70470D2BF7D00E2BF8D10E
:10333000D3685DF8044B0133D36070470C2B05D084
:10334000F2D8092BD8D00B2BE8D0EAE7D3685DF888
:10335000044B0233D36070474AF28853C2F2010330
:1033600010B4D3F8B4201368506819780478507AF0
:10337000137A044201EA03011AD0937A03F003039B
:1033800009B143F0040343F008039910082B91722C
:103390002AD8072B22D2032B2ED011D9042B13D0DD
:1033A000062B14D1D3685DF8044B023BD360704701
:1033B000937A03F003030029E7D043F00403E4E722
:1033C000012B0BD0022B02D1D368013BD3605DF8F7
:1033D000044B70470D2BF7D00E2BF8D1D3685DF856
:1033E000044B0133D36070470C2B05D0F2D8092B66
:1033F000D8D00B2BE8D0EAE7D3685DF8044B023352
:10340000D36070474AF28853C2F2010310B4D3F874
:10341000B8201368506819780478507A137A0442F7
:1034200001EA03011AD0937A03F0030309B143F0D0
:10343000040343F008039910082B91722AD8072B34
:1034400022D2032B2ED011D9042B13D0062B14D14A
:10345000D3685DF8044B023BD3607047937A03F066
:1034600003030029E7D043F00403E4E7012B0BD06A
:10347000022B02D1D368013BD3605DF8044B704747
:103480000D2BF7D00E2BF8D1D3685DF8044B013328
:10349000D36070470C2B05D0F2D8092BD8D00B2B5A
:1034A000E8D0EAE7D3685DF8044B0233D360704795
:1034B0004AF28853C2F2010310B4D3F8BC20136857
:1034C000506819780478507A137A044201EA0301AB
:1034D0001AD0937A03F0030309B143F0040343F0D5
:1034E00008039910082B91722AD8072B22D2032B9C
:1034F0002ED011D9042B13D0062B14D1D3685DF82C
:10350000044B023BD3607047937A03F00303002916
:10351000E7D043F00403E4E7012B0BD0022B02D1E8
:10352000D368013BD3605DF8044B70470D2BF7D097
:103530000E2BF8D1D3685DF8044B0133D36070478C
:103540000C2B05D0F2D8092BD8D00B2BE8D0EAE70A
:10355000D3685DF8044B0233D36070474AF2885356
:10356000C2F2010310B4D3F8E02013685068197850
:103570000478507A137A044201EA03011AD0937A4C
:1035800003F0030309B143F0040343F00803991067
:10359000082B91722AD8072B22D2032B2ED011D9B7
:1035A000042B13D0062B14D1D3685DF8044B023BD7
:1035B000D3607047937A03F003030029E7D043F008
:1035C0000403E4E7012B0BD0022B02D1D368013BAB
:1035D000D3605DF8044B70470D2BF7D00E2BF8D15C
:1035E000D3685DF8044B0133D36070470C2B05D0D2
:1035F000F2D8092BD8D00B2BE8D0EAE7D3685DF8D6
:10360000044B0233D360704710B443F2907400232C
:10361000C0F202044172026104600372C36041B1EE
:10362000194600E0026942F82310427A01339A42B7
:10363000F8DC4AF28863C2F201031A680AB90CE0A6
:103640001A465369002BFBD15061002343618380EC
:10365000C38083725DF8044B70471860F5E700BFC4
:103660002DE9F84341F2B854C2F2010447F61221A1
:10367000A06C0368DB69984747F6A905032047F665
:10368000112747F6713143F6B53247F6C14384F846
:103690006400C0F20005C0F20007C0F20001C0F2F1
:1036A0000002C0F2000342F2D93065602760E16099
:1036B0006261A361C0F2000044F6E53541F2E547DE
:1036C00047F6056140F6496241F2AD732061C0F2F0
:1036D0000005C0F20007C0F20001C0F20002C0F213
:1036E000000341F67140E5612762A160A262E362D6
:1036F000C0F2000041F27D2541F2393741F2C1119B
:1037000041F2051241F2F533C0F20002C0F20003AB
:103710002063C0F20005C0F20007C0F200014EF2C3
:10372000C00643F6C03022646364C2F200066563DB
:10373000A76300254FF6FF77E163C0F2020017216F
:1037400084F84C5084F84E5084F84D50A56565655A
:1037500084F8E95084F8665084F8655084F867501E
:1037600084F86850E76527661AF072FF304618F053
:10377000E9F914F035FF41F20073C2F2010347F694
:10378000591247F6BD20C0F20002C0F2000047F611
:103790001541C3F85423C3F85003C0F2000143F6A7
:1037A000195447F6655242F26D20C3F85C13C0F21B
:1037B0000004C0F20002C0F2000044F69551C3F8C4
:1037C0006443C3F86823C3F86003C0F2000141F604
:1037D0000D7447F6896242F24500C3F87013C0F2D7
:1037E0000004C0F20002C0F2000041F64D61C3F8CF
:1037F0007443C3F85823C3F87C03C0F2000141F6B8
:103800005D5440F6354240F6B520C3F88013C0F24F
:103810000004C0F20002C0F2000040F67531C3F8A7
:103820008443C3F88823C3F88C03C0F2000140F638
:10383000F51440F6F54243F6D830C0F20002C3F862
:103840009013C0F200041D21C0F20200C3F894439B
:10385000C3F898231AF0FCFE304618F073F941F6CD
:10386000DC73C2F2010341F689209A6C02F118015F
:10387000156095615560D5619560D560156255629A
:1038800012615261D1629162C0F2000043F61534B8
:1038900041F631124FF001095860C0F20004C0F245
:1038A000000241F6E91083F84E5083F84D509D65B3
:1038B0005D65DF651F6683F8E95083F8665083F81D
:1038C000655083F8675083F868505C619A6109FA23
:1038D00009F8C0F2000041F6690C45F6E10E44F625
:1038E000593142F2F51741F20D7542F27D1441F261
:1038F0001D621861C0F2000E48EA0908C0F2000C0F
:10390000C0F20001C0F20007C0F20005C0F20004DE
:10391000C0F2000241F6E13083F84C9083F86480F5
:10392000C3F800C0C3F80CE0C0F20000D9611F6208
:103930009D609C62DA6240F6857140F6E57741F25F
:10394000450541F2A50441F27D621863C0F2000111
:10395000C0F20007C0F20005C0F20004C0F200028D
:1039600043F6F83059639F63DD631C645A64C0F208
:10397000020018211AF06CFE3046BDE8F84318F03A
:10398000E1B800BF4DF20A73C3F6234306EE103AC6
:10399000437EC17E07EE103A837CB8EEC77A07EE0D
:1039A000903A70B4F8EEE76A27EE067A83B067EED5
:1039B000267A0022FCEEE77A8273CDED017A42731B
:1039C0009DF80430027301B10373827E02B1437328
:1039D000027F02B1837390F8213090F8231007EE34
:1039E000103A4DF20A73C3F6234306EE103A037CF5
:1039F000B8EEC77A07EE903A27EE067AF8EEE76A55
:103A000067EE267AFCEEE77ACDED017A9DF8043078
:103A100021B1017B994238BF1946017390F82210F9
:103A200021B1417B994238BF1946417390F8244037
:103A300024B1817B8B4238BF0B468373437FC17FA8
:103A400007EE103A4DF20A73C3F6234306EE103A1E
:103A5000437CB8EEC77A07EE903A27EE067AF8EE86
:103A6000E76A67EE267AFCEEE77ACDED017A9DF8FB
:103A7000043021B1017B994238BF19460173817F1F
:103A800021B1417B994238BF1946417390F820100B
:103A900021B1857BAB4238BF2B46837390F825302C
:103AA00090F8275007EE103A4DF20A73C3F62343FD
:103AB00006EE103AC37BB8EEC77A07EE903A27EECF
:103AC000067AF8EEE76A67EE267AFCEEE77ACDED45
:103AD000017A9DF8043025B1057B9D4238BF1D4613
:103AE000057390F8265025B1457B9D4238BF1D4691
:103AF000457390F8285025B1867BB34238BF3346D2
:103B0000837322B919B914B90DB97F23837303B034
:103B100070BC704741F2E463C2F2010370B51B68E8
:103B2000054683F8CF1003F1C0000C46FFF72AFFCB
:103B300043F614400D21013DC0F202001AF088FD49
:103B4000E9B20F290FD841F2B856C2F2010641F08E
:103B5000D001B06C03681B689847B06C036804F030
:103B60007F011B68984743F60C000F21C0F202004A
:103B70001AF06EFD230403F4FE03290243F45043BC
:103B800043F00D0301F4706141F200701943C2F279
:103B9000010016F041FB43F6F400C0F202001421CC
:103BA0001AF056FD4EF2C000C2F20000BDE87040AF
:103BB00017F0C8BF2DE9F84341F2E463C2F20103F4
:103BC00004461B6883F8CF1003F1C0000D46FFF7D1
:103BD000D9FE43F624400D21C0F202001AF038FD50
:103BE0002B04013C03F4FE03210243F4504343F051
:103BF0000D0301F4706141F200701943C2F201003B
:103C000016F00AFB43F6F400C0F202001421E4B2FD
:103C10001AF01EFD0F2C5BD841F6DC7EC2F2010EBD
:103C200064F02F04DEF848301A699C46511C196173
:103C300014705CF8107F674505F07F0824BF1B6196
:103C40001F4601254FF000095A69974202F1010011
:103C500013D0586114785A6B84454FEA241698BFE4
:103C60005B619918501C002A41D15A6983F8306071
:103C700097425D6302F10100EBD1DEF848301A692A
:103C80001F46511C196182F8008057F8106FBE4220
:103C900024BF1B611E464FF0010E4FF0000C5A6905
:103CA000964202F1010113D0596110785A6B8F428C
:103CB0004FEA201598BF5B619C18511C0ABB5A69DA
:103CC00083F830509642C3F834E002F10101EBD1A1
:103CD00043F61C00C0F202000F211AF0B9FC4EF2AC
:103CE000C000C2F20000BDE8F84317F02BBF032864
:103CF00081F830405863A7D1C3F83090C3F83490AE
:103D0000A2E7032984F830005963C8D1C3F830C052
:103D1000C3F834C0C3E700BF2DE9F84341F2E463C0
:103D2000C2F2010304461B6883F8CF1003F1C00000
:103D30000F46FFF727FE43F63440C0F2020012217F
:103D40001AF086FC601EC0B20F2800F2938041F288
:103D5000B855C2F2010540F0D004A86C03682146B2
:103D60001B689847A86C036807F07F071B683946F3
:103D7000984743F60C000F21C0F202001AF068FCCD
:103D800041F6DC7CC2F2010C4FF00108DCF848304F
:103D90001A699E46511C196114705EF8101F714516
:103DA00024BF1B6119464FF000095A69914202F184
:103DB000010014D0586114785A6B86454FEA2416D6
:103DC00098BF5B619D18501C002A3FD15A6983F847
:103DD00030609142C3F8348002F10100EAD1DCF88E
:103DE00048301A699E46511C196117705EF8106FB1
:103DF000764524BF1B611E4601274FF0000C5A690F
:103E0000964202F1010112D0596110785A6B8E4529
:103E10004FEA201598BF5B619C18511C02BB5A6980
:103E200083F8305096425F6302F10101ECD143F612
:103E30001C00C0F202000F211AF00AFC4EF2C00072
:103E4000C2F20000BDE8F84317F07CBE032885F8F5
:103E500030405863A9D1C3F83090C3F83490A4E738
:103E6000032984F830005963C9D1C3F830C0C3F8BE
:103E700034C0C4E743F60C000F21C0F202001AF070
:103E8000E7FBD4E710B4036841681A780C78417AEC
:103E9000037A0C4202EA03021AD0837A03F0030386
:103EA0000AB143F0040343F008039A10082B82720E
:103EB0002AD8072B22D2032B2ED011D9042B13D0B2
:103EC000062B14D1C3685DF8044B023BC3607047F6
:103ED000837A03F00303002AE7D043F00403E4E706
:103EE000012B0BD0022B02D1C368013BC3605DF8EC
:103EF000044B70470D2BF7D00E2BF8D1C3685DF83B
:103F0000044B0133C36070470C2B05D0F2D8092B4A
:103F1000D8D00B2BE8D0EAE7C3685DF8044B023336
:103F2000C360704708B54AF28853C2F20103D3F860
:103F3000EC00FFF7A7FF08BD08B54AF28853C2F2AC
:103F40000103D3F8E800FFF79DFF08BD08B54AF26A
:103F50008853C2F20103D3F8E400FFF793FF08BDD2
:103F600008B54AF28853C2F20103D86FFFF78AFFFF
:103F700008BD00BF08B54AF28853C2F20103986F2A
:103F8000FFF780FF08BD00BF08B54AF28853C2F2B0
:103F90000103586FFFF776FF08BD00BF08B54AF26E
:103FA0008853C2F20103186FFFF76CFF08BD00BF12
:103FB00008B54AF28853C2F20103D86EFFF762FFD8
:103FC00008BD00BF08B54AF28853C2F20103986EDB
:103FD000FFF758FF08BD00BF08B54AF28853C2F288
:103FE0000103586EFFF74EFF08BD00BF08B54AF247
:103FF0008853C2F20103186EFFF744FF08BD00BFEB
:1040000008B54AF28853C2F20103D86DFFF73AFFB0
:1040100008BD00BF08B54AF28853C2F20103986D8B
:10402000FFF730FF08BD00BF08B54AF28853C2F25F
:104030000103586DFFF726FF08BD00BF08B54AF21F
:104040008853C2F20103186DFFF71CFF08BD00BFC3
:1040500008B54AF28853C2F20103D86CFFF712FF89
:1040600008BD00BF08B54AF28853C2F20103986C3C
:10407000FFF708FF08BD00BF08B54AF28853C2F237
:104080000103586CFFF7FEFE08BD00BF08B54AF2F9
:104090008853C2F20103186CFFF7F4FE08BD00BF9D
:1040A00008B54AF28853C2F20103D86BFFF7EAFE63
:1040B00008BD00BF08B54AF28853C2F20103986BED
:1040C000FFF7E0FE08BD00BF08B54AF28853C2F210
:1040D0000103586BFFF7D6FE08BD00BF08B54AF2D2
:1040E0008853C2F20103186BFFF7CCFE08BD00BF76
:1040F00008B54AF28853C2F20103D86AFFF7C2FE3C
:1041000008BD00BF08B54AF28853C2F20103986A9D
:10411000FFF7B8FE08BD00BF08B54AF28853C2F2E7
:104120000103586AFFF7AEFE08BD00BF08B54AF2AA
:104130008853C2F20103186AFFF7A4FE08BD00BF4E
:1041400008B54AF28853C2F20103D869FFF79AFE14
:1041500008BD00BF08B54AF28853C2F2010398694E
:10416000FFF790FE08BD00BF08B54AF28853C2F2BF
:1041700001035869FFF786FE08BD00BF08B54AF283
:104180008853C2F201031869FFF77CFE08BD00BF27
:1041900008B54AF28853C2F20103D868FFF772FEED
:1041A00008BD00BF08B54AF28853C2F201039868FF
:1041B000FFF768FE08BD00BF08B54AF28853C2F297
:1041C00001035868FFF75EFE08BD00BF08B54AF25C
:1041D0008853C2F201031868FFF754FE08BD00BF00
:1041E0001D2810B50B4600F0E983024622D92C2881
:1041F00000F064813FD8242800F0EE8340F2A880CC
:10420000282800F0748300F2D680262800F0F5817B
:1042100040F2D5824AF28854C2F2010442F651714A
:10422000C0F2000104222720C4F89C3018F0F6F9EF
:10423000012010BD0E2800F097833AD8062800F020
:10424000A1836CD90A2800F0058300F207810828B1
:1042500000F07E8140F275824AF28854C2F2010475
:1042600044F21911C0F2000104220920636218F01F
:10427000D5F9012010BD342800F0BD8336D8302890
:1042800000F0638300F2D6802E2800F0528140F2C5
:1042900001824AF28854C2F2010443F2B141C0F2F1
:1042A000000104222F20C4F8BC3018F0B7F9012017
:1042B00010BD152800F0748364D9192800F0FA8124
:1042C00000F2A580172800F08A8140F2D1824AF2DC
:1042D0008854C2F2010443F6ED71C0F200010422D9
:1042E0001820236618F09AF9012010BD382800F034
:1042F000CE8275D8362800F0398140F27F824AF2AA
:104300008854C2F2010442F6F111C0F20001042205
:104310003720C4F8DC3018F081F9012010BD0228E4
:1043200000F0018240F27881042800F04B8140F2D5
:10433000BD824AF28854C2F2010444F26911C0F20B
:10434000000104220520636118F068F9012010BD06
:10435000202800F0448240F28981222800F0238145
:1043600040F2D4824AF28854C2F2010442F6A141DA
:10437000C0F2000104222320C4F88C3018F04EF95A
:10438000012010BD112800F0B18140F25A8113289C
:1043900000F0FB8040F2B8814AF28854C2F2010476
:1043A00044F23D01C0F2000104221420236518F0FC
:1043B00035F9012010BD2A2800F0AC8040F2E081E0
:1043C0004AF28854C2F2010443F20121C0F2000112
:1043D00004222B20C4F8AC3018F020F9012010BDC5
:1043E0003A2800F08880C0F072823B2840F06D824D
:1043F0004AF28854C2F2010443F62571C0F200016A
:104400000422C4F8EC3018F009F9012010BD1B2873
:1044100063D040F28B824AF28854C2F2010443F620
:104420009D71C0F2000104221C20236718F0F6F8E9
:10443000012010BD322824D040F292814AF28854E3
:10444000C2F2010442F24171C0F2000104223320A1
:10445000C4F8CC3018F0E2F8012010BD0C281FD0B1
:1044600040F29E814AF28854C2F2010444F2C9012A
:10447000C0F2000104220D20636318F0CFF8012080
:1044800010BD4AF28854C2F2010442F29561C0F2B2
:1044900000010422C4F8C83018F0C0F8012010BD93
:1044A0004AF28854C2F2010444F2DD01C0F2000174
:1044B0000422236318F0B2F8012010BD4AF2885498
:1044C000C2F2010443F2AD21C0F200010422C4F89B
:1044D000B03018F0A3F8012010BD4AF28854C2F29F
:1044E000010443F6B171C0F200010422E36618F042
:1044F00095F8012010BD4AF28854C2F2010443F637
:104500003971C0F200010422C4F8E83018F086F8CE
:10451000012010BD4AF28854C2F2010443F2551141
:10452000C0F200010422C4F8A83018F077F8012086
:1045300010BD4AF28854C2F2010443F20541C0F2B0
:1045400000010422C4F8B83018F068F8012010BD4A
:104550004AF28854C2F2010444F22D11C0F2000163
:104560000422236218F05AF8012010BD4AF2885440
:10457000C2F2010442F64511C0F200010422C4F85F
:10458000D83018F04BF8012010BD4AF28854C2F21E
:10459000010444F25101C0F200010422E36418F066
:1045A0003DF8012010BD4AF28854C2F2010442F6DF
:1045B000F531C0F200010422C4F8883018F02EF85A
:1045C000012010BD4AF28854C2F2010444F27D1168
:1045D000C0F20001236118F021F8012010BD4AF259
:1045E0008854C2F2010444F20101C0F20001042225
:1045F000E36518F013F8012010BD4AF28854C2F2A6
:10460000010442F6A561C0F200010422C4F898300A
:1046100018F004F8012010BD002800F0FF800128E8
:1046200040F053814AF28854C2F2010444F2B911B5
:10463000C0F2000104220120636017F0EFFF0120A7
:1046400010BD0F2800F0F880102840F03E814AF29B
:104650008854C2F2010444F28D01C0F20001042228
:104660001020236417F0DAFF012010BD1E282FD080
:104670001F2840F02A814AF28854C2F2010443F60E
:104680006171C0F2000104221F20E36717F0C6FF2A
:10469000012010BD4AF28854C2F2010443F259319C
:1046A000C0F2000104222D20C4F8B43017F0B6FF88
:1046B000012010BD4AF28854C2F2010443F6D971B8
:1046C000C0F200010422636617F0A8FF012010BDAC
:1046D0004AF28854C2F2010443F67571C0F2000137
:1046E0000422A36717F09AFF012010BD4AF28854F4
:1046F000C2F2010444F27901C0F2000104226364B1
:1047000017F08CFF012010BD4AF28854C2F2010458
:1047100044F26501C0F2000104221220A36417F0E4
:104720007DFF012010BD4AF28854C2F2010444F218
:10473000A511C0F200010422A36017F06FFF012051
:1047400010BD4AF28854C2F2010444F24111C0F291
:10475000000104220720E36117F060FF012010BD73
:104760004AF28854C2F2010442F2E951C0F2000157
:1047700004223120C4F8C43017F050FF012010BDCE
:104780004AF28854C2F2010443F2A901C0F20001C6
:1047900004222920C4F8A43017F040FF012010BDE6
:1047A0004AF28854C2F2010444F2F101C0F200015D
:1047B00004220B20E36217F031FF012010BD4AF202
:1047C0008854C2F2010442F6F951C0F200010422F9
:1047D0002520C4F8943017F021FF012010BD4AF2C3
:1047E0008854C2F2010442F69D21C0F20001042265
:1047F000C4F8803017F012FF012010BD4AF288542F
:10480000C2F2010442F69901C0F2000104223520EF
:10481000C4F8D43017F002FF012010BD4AF28854CA
:10482000C2F2010444F2CD11C0F20001042223605F
:1048300017F0F4FE012010BD4AF28854C2F20104C0
:1048400044F2A101C0F200010422E36317F0E6FE86
:10485000012010BD4AF28854C2F2010444F205114D
:10486000C0F200010422A36217F0D8FE012010BD9F
:104870004AF28854C2F2010444F21501C0F2000168
:1048800004221620A36517F0C9FE012010BD4AF2CC
:104890008854C2F2010443F25D51C0F200010422C7
:1048A000C4F8E03017F0BAFE012010BD4AF2885477
:1048B000C2F2010444F29111C0F20001042203206B
:1048C000E36017F0ABFE012010BD002010BD4AF2DE
:1048D0008854C2F2010443F64D71C0F20001042273
:1048E0003920C4F8E43017F099FE012010BD4AF2D7
:1048F0008854C2F2010442F6FD71C0F200010422A4
:10490000C4F8A03017F08AFE012010BD4AF2885486
:10491000C2F2010442F64931C0F200010422212012
:10492000C4F8843017F07AFE012010BD4AF2885492
:10493000C2F2010443F6C571C0F2000104221A203C
:10494000A36617F06BFE012010BD4AF28854C2F234
:10495000010442F23D51C0F200010422C4F8C0300B
:1049600017F05CFE012010BD4AF28854C2F2010427
:1049700044F2B501C0F200010422A36317F04EFE19
:10498000012010BD4AF28854C2F2010444F25511CC
:10499000C0F200010422A36117F040FE012010BD07
:1049A0004AF28854C2F2010444F22901C0F2000123
:1049B0000422636517F032FE012010BD4AF28854CC
:1049C000C2F2010443F68971C0F200010422636758
:1049D00017F024FE012010BD4AF28854C2F20104EF
:1049E00042F64D51C0F200010422C4F8903017F095
:1049F00015FE012010BD4AF28854C2F2010442F2B1
:104A0000ED71C0F200010422C4F8D03017F006FEA8
:104A1000012010BDF8B5044615460E460846022191
:104A200018F074F82846022118F070F844F6006374
:104A3000C0F20203012253F83600227200F5007121
:104A4000216053F8351062724DF2C04301F50077D2
:104A500062F31F4300226760E260013BFDD190F8E2
:104A6000003291F8002203F00103D20744BF43F063
:104A70000203DBB2A37221463046FFF7B1FB2146A9
:104A800020742846FFF7ACFB237C18442074204692
:104A9000F8BD00BFF8B5074643F648400E46C0F2E1
:104AA00002000B2119F0D4FD4EF2C0003146C2F2D3
:104AB000000000230A2217F057F843F65440C0F2D2
:104AC0000200012119F0C4FD86B300252C4643F6EF
:104AD0004C700121C0F2020019F0BAFD01344EF20F
:104AE000C000795DE4B2C2F2000000230A2217F090
:104AF0003BF8A6422546EAD84EF2C000C2F20000BA
:104B000017F020F87B78432B19D1072E1DD043F6E0
:104B1000AC40C0F20200202119F09AFD4EF2C00014
:104B2000C2F20000BDE8F84017F00CB84EF2C00029
:104B3000C2F2000017F006F87B78432BE7D043F66B
:104B40005840C0F202001B21E6E743F67440C0F271
:104B500002003621E0E700BF2DE9F04141F2B855EF
:104B60000F468046C2F20105FFF794FF43F6D0409E
:104B70001021C0F2020019F06BFDA86C0368F0214F
:104B8000DB6C984757B1444608EB0706A86C14F84D
:104B9000011B03681B689847A642F7D1A86C0368FD
:104BA000F721DB6C984743F60C000F21C0F202009E
:104BB00019F04EFD41F200703A464146C2F2010042
:104BC000002315F067FB43F6F400C0F20200142145
:104BD00019F03EFD4EF2C000C2F20000BDE8F04107
:104BE00016F0B0BF2DE9F04705460C46FFF752FF1F
:104BF00043F6E4401021C0F2020019F029FD41F211
:104C00000070224600232946C2F2010041F6DC78FA
:104C100015F040FBC2F2010843F6F4001421C0F283
:104C2000020019F015FDD8F848301A691F46501CCB
:104C3000F0211861117057F8102FBA4226BF1B617E
:104C40009E4696464FF0010C4FF000095A69724596
:104C500002F1010114D0596110785A6B8F424FEA6A
:104C6000201A98BF5B619E18511C002A7DD15A6999
:104C700083F830A07245C3F834C002F10101EAD1D3
:104C80007CB3AE4605EB040901274FF0000CD8F8C1
:104C900048301EF8011B1A691E46501C186111701D
:104CA00056F8105FB54224BF1B611D465A69AA42DF
:104CB00002F1010113D0596110785A6B8E424FEA0C
:104CC000201A98BF5B619C18511C002A58D15A6960
:104CD00083F830A0AA425F6302F10101EBD1CE4517
:104CE000D5D1D8F848301A691E46F721501C1861F2
:104CF000117056F8107FB74201D31B611F464FF069
:104D0000010E4FF0000C5A69BA4202F1010113D0B2
:104D1000596110785A6B8E424FEA201598BF5B613B
:104D20009C18511CBAB95A6983F83050BA42C3F87A
:104D300034E002F10101EBD143F61C00C0F20200A5
:104D40000F2119F085FC4EF2C000C2F20000BDE850
:104D5000F04716F0F7BE032984F830005963D2D12A
:104D6000C3F830C0C3F834C0CDE7032986F830005B
:104D700059637FF46BAFC3F83090C3F8349065E7A4
:104D8000032984F83000596390D1C3F830C0C3F8C8
:104D900034C08BE72DE9F04741F2B8570D4606467F
:104DA000C2F20107FFF776FE43F6F8401521C0F284
:104DB000020019F04DFCB86C0368F021DB6C9847D9
:104DC00055B1344606EB0508B86C14F8011B0368AE
:104DD0001B6898474445F7D1B86C0368F721DB6C32
:104DE00041F6DC789847C2F2010843F60C000F2127
:104DF000C0F2020019F02CFCD8F848301A691F469E
:104E0000501CF0211861117057F8102FBA42C0F0F1
:104E1000A0801B619E464FF0010C4FF000095A69BB
:104E2000724502F1010114D0596110785A6B8F421A
:104E30004FEA201A98BF5B619C18511C002A7DD153
:104E40005A6983F830A07245C3F834C002F10101F9
:104E5000EAD17DB3B64606EB050901274FF0000CF9
:104E6000D8F848301EF8011B1A691E46501C1861FC
:104E7000117056F8105FB54224BF1B611D465A6978
:104E8000AA4202F1010113D0596110785A6B8E4287
:104E90004FEA201A98BF5B619C18511C002A5AD116
:104EA0005A6983F830A0AA425F6302F10101EBD195
:104EB000F145D5D1D8F848301A691E46F721501C63
:104EC0001861117056F8107FB74201D31B611F465D
:104ED0004FF0010E4FF0000C5A69BA4202F1010185
:104EE00013D0596110785A6B8E424FEA201598BF43
:104EF0005B619C18511CBAB95A6983F83050BA42A8
:104F0000C3F834E002F10101EBD143F61C00C0F21A
:104F100002000F2119F09CFB4EF2C000C2F200000B
:104F2000BDE8F04716F00EBE032984F8300059633F
:104F3000D2D1C3F830C0C3F834C0CDE7032984F818
:104F4000300059637FF46BAFC3F83090C3F83490EE
:104F500065E796465FE7032984F8300059638ED1F0
:104F6000C3F830C0C3F834C089E700BFFFFFFFFFBC
:104F700070B52DED068B4DF644524DF6385343F681
:104F8000105082B0F0EE408AC2F20002C2F200037A
:104F90001421C0F2020082ED000AC3ED000AB0EE57
:104FA000608A19F055FB18EE900A1DF05FF84EF27A
:104FB000C004C2F2000443F6285641EC100BC0F2C4
:104FC000020620460A2116F00FFE0121304619F094
:104FD0003FFB022017F00AF843F62C5501900A22F5
:104FE000C0F2020501990023204616F0BDFD2846B7
:104FF000012119F02DFB019B07EE903A0023C4F22A
:105000007F3307EE103AF8EE677A9FED5B9BC7EEB1
:10501000876A16EE900A1DF029F841EC100B204625
:105020000A2116F0E1FD43F630500621C0F20200DD
:1050300019F00EFB0121304619F00AFB032016F08F
:10504000D5FF0A22019001460023204616F08CFD70
:105050002846012119F0FCFA019B07EE903A002343
:10506000C4F2FE2307EE103AF8EE677AC7EE876ABD
:1050700016EE900A1CF0FAFF41EC100B20460A21B4
:1050800016F0B2FD43F638500221C0F2020019F0CA
:10509000DFFA40F6DB73C4F2490307EE903A28EEDC
:1050A000278AF6EE007A28EE278AB0EE480A1AF030
:1050B0008BF968EE807A17EE900A1CF0D7FFB0EEFD
:1050C000491AF0EE691A41EC100B41EC1A0B1AF078
:1050D0004FFA2046032116F087FD0121284619F0DA
:1050E000B7FAB0EE480A1AF027F968EE807A17EEA0
:1050F000900A1CF0BBFFB0EE491AF0EE691A41ECC1
:10510000100B41EC180B1AF033FA0321204616F06D
:105110006BFD204616F016FDB0EE491AF0EE691A46
:10512000B0EE4A0AF0EE6A0A1AF022FAB0EE491A14
:10513000F0EE691A55EC104BB0EE480AF0EE680A32
:105140001AF016FA51EC100B1DF0DCFA294601900A
:1051500020461DF0D7FA019B00EE100A00EE903AAF
:1051600040F25C50C2F2010002B0BDEC068BBDE81B
:1051700070400DF013BB00BF0000002085EBB13F75
:105180002DE9F041044643F63C502DED028B0D46CF
:10519000C0F20200032119F05BFA4EF2C0000023B6
:1051A0000A222146C2F2000016F0DEFC43F640500F
:1051B0000121C0F2020019F04BFA4EF2C00029465C
:1051C00000230A22C2F2000016F0CEFC4EF2C0000C
:1051D000C2F2000016F0B6FC672C00F0058251D92F
:1051E000782C00F08E8100F2D180692C00F0FF80D5
:1051F000C0F083826A2C00F045826B2C5AD10023C8
:1052000001EE903A05EB45050023C4F2482305EB77
:10521000051501EE103AC5F3C71307EE903A41F6B3
:10522000D872C2F20102B8EE670AF0EE610AB7EE78
:10523000002A137004F094FA4FF47E43C4F2FF6323
:1052400007EE903AB4EEE70AF1EE10FA00F393821B
:105250004FF47E43CCF2FF6307EE903AB4EEE70AD8
:10526000F1EE10FA40F12F830023C8F20103BDECE8
:10527000028B41F21452C2F20102BDE8F041D36147
:1052800007F076B8072C00F0918117D8012C00F0B8
:10529000A380C0F07D81022C00F06F81042C09D125
:1052A00041F2E463C2F20103186880F8D150C030C3
:1052B000FEF768FBBDEC028BBDE8F081202C00F00E
:1052C000858040F2E880402C00F02681662CF1D1E8
:1052D00005EB45054DF63C5205EB0515EB11C2F209
:1052E0000002322B137000F04A8248F21F529B02D8
:1052F000C5F2EB1282FB0312DB17C3EB221307EE9E
:10530000903A0023C4F21633F8EEE77A00EE103A32
:1053100041F6D853C2F2010387EE800A00214FF410
:10532000803259629A611AF0BFFA0023C4F2A023B6
:1053300007EE903AB2EE047AE0EE077AB3EE047A22
:10534000F4EEC77AF1EE10FA00F151824DF61E63C9
:10535000C4F2896307EE103AF4EEC77AF1EE10FA60
:1053600040F31C824FF40C424FF43E44C4F63C32EE
:10537000C5F26C04BDEC028B41F68873C2F20103E6
:105380009C61DA61BDE8F04106F0F2BF7B2C12D0DF
:1053900040F29D807E2C00F0A8807F2C8AD1BDEC4D
:1053A000028B41F2E463C2F2010300211868BDE8F8
:1053B000F0410AF049B9BDEC028B41F2E463C2F25C
:1053C0000103BDE8F04118680AF046BA40F268539C
:1053D000C2F201031D706DE741F2E463C2F2010302
:1053E000186880F8D250C030FEF7CCFA62E700238C
:1053F00001EE903A0023C4F2964302EE103A05EB18
:1054000045050023C4F2482305EB051501EE103ACB
:10541000C5F3C71307EE903A40F24552C2F20102BB
:10542000B8EE670AF0EE610A137004F099F9B5EE70
:10543000C00AF1EE10FA00F1CC8147F67903C4F20C
:10544000302307EE103AF6EE007AE0EE077A49F6DE
:105450008073C0F20103FCEEE77A17EE902A9A42BD
:1054600040F238821A464FF4507040F23073C2F264
:105470000103197ECC0700F1B181DC8B1A62A042D6
:1054800041F0010188BFD8831976BDEC028BBDE8DD
:10549000F04106F06DBF0A2C7FF40CAF4DF644527C
:1054A000BDEC028B07EE905AC2F20002FBEEEC7AE2
:1054B00012684DF63853C2F2000300EE102AF0EEE7
:1054C000670ABDE8F041C3ED007AFFF751BD792CC2
:1054D0007FF4F0AEBDEC028B41F2E463C2F2010353
:1054E000BDE8F04118680AF0D7B8BDEC028B41F274
:1054F000E463C2F2010301211868BDE8F0410AF03B
:10550000A3B8BDEC028B41F2E463C2F20103BDE833
:10551000F04118680AF0ACB841F2E466C2F2010644
:105520003F2D94BF0021012130680AF095F83068C2
:105530000AF09AF8054600287FF4BCAE306837467A
:105540000AF02EFAEBB203EB430498424FEA8404CC
:105550007FF6B0AE306803190135DA78002AEFD053
:1055600093F80280B8F1000FEAD198680BF08CFC38
:105570003868044484F80380E2E741F2E463C2F24D
:105580000103186880F8D050C030FEF7FBF991E6AF
:10559000632D3FF68FAE40F26853C2F201031D70D7
:1055A000BDEC028BBDE8F04106F0E2BE07EE905A7A
:1055B0000023C4F2FE23B8EE677A07EE903A87EE36
:1055C000270A4DF63852BDEC028BC2F200024DF6AE
:1055D00044531268C2F20003BDE8F04100EE902A85
:1055E00083ED000AFFF7C4BC43F23332C3F63372D3
:1055F00005EBC50508EE102AC5F34715002207EE96
:10560000905AC4F20C2241F61963C2F2010301EE72
:10561000102A0022B8EE670A00EE902AF0EE481A2F
:10562000B1EE042A1D7004F09BF81AF03DF943F620
:105630005813C3F6345307EE103A42F6F603C3F696
:105640001C7307EE903AE0EE077AF4EEC87AF1EEBA
:1056500010FA00F18780B1EE047AF4EEC77AF1EE29
:1056600010FA40F31E814CF6D042C0F6CC42BDEC9D
:10567000028B41F68873C2F20103BDE8F0415A6221
:1056800006F076BE05EBC5050022C5F3471501EE11
:10569000902A07EE905A41F618630022C2F20103E5
:1056A000C4F20C22B8EE670A01EE102AF0EE610A8D
:1056B000B7EE002A1D7004F053F84FF47E43C4F295
:1056C000FF6307EE903AB4EEE70AF1EE10FA4EDC13
:1056D0004FF47E43CCF2FF6307EE903AB4EEE70A54
:1056E000F1EE10FA40F1E8800023C8F2010341F620
:1056F000D852C2F20102D361C7E6C5EBC505C5F3B6
:10570000471507EE905A4DF640530022C2F20003AF
:1057100001EE902AB8EE670A00EE902AB1EE0C2A4C
:10572000B3EE0B1A1D7004F01BF8B5EEC00AF1EED3
:1057300010FA51D44FF62E73C4F2DF0307EE903AFD
:10574000B4EEE70AF1EE10FA5ADD46F6FF73BDEC4F
:10575000028B41F68872C2F20102BDE8F041136289
:1057600006F006BE4FF43742C5F66D327FE70023E0
:10577000C7F6FF73BBE70023C7F6FF7377E541F673
:10578000D853C2F201034FF48031002259629A616A
:1057900045F27C43C4F2116307EE903A45F246634A
:1057A000C3F6150300EE103A4FF09E4308EE103A90
:1057B00027EE800A60EE087AFDEEE77A17EE904A4F
:1057C00019F002FE20EE080AFDEEC07A17EE902ACC
:1057D000D0E50120002248E60023B8E71C6AA24277
:1057E00015D9D98B1A62884288BFD8834DE645F215
:1057F0007A5245F27B54C0F21702C0F21704B9E5A1
:10580000F0EE407AFEEECA7A17EE903A9FE702F188
:105810007F00C009013000281A62024638BF00220A
:10582000880706D5586A7F30C0090130824238BFE8
:1058300002464F0706D5986A7F30C0090130824280
:1058400038BF02460E0706D5D86A7F30C00901303E
:10585000824238BF0246CD0606D5186B7F30C0099C
:105860000130824238BF02468C0606D5586B7F3025
:10587000C0090130824238BF0246480606D5986BFF
:105880007F30C0090130824238BF0246C90906D0C4
:10589000D96B7F31C90901318A4238BF0A46DA83A0
:1058A000F3E5F7EE006A86EEA77AF0EE477AFEEEB1
:1058B000C17A17EE902ADAE6F0EE407AFEEEC87A68
:1058C00017EE903A13E7F0EE407AFEEEC87A17EE44
:1058D000903ACCE402F17F00C0090130C5E500BF79
:1058E000F8B541F2E063C2F201030E461B7814469C
:1058F000054623B1984202D0FBF776FA18B121464B
:105900003046FFF73DFC43F644500D21013DC0F207
:10591000020018F09DFEE9B20F2915D841F2B857E0
:10592000C2F2010741F0B001B86C03681B689847E8
:10593000B86C036806F07F011B689847B86C036871
:1059400004F07F011B68984743F60C000F21C0F25A
:10595000020018F07DFE230603F0FE43310443F4F9
:10596000304301F4FE012D0243F00B030B4341F2DF
:10597000007005F470611943C2F2010014F04CFC90
:1059800043F6F400C0F20200142118F061FE4EF25A
:10599000C000C2F20000BDE8F84016F0D3B800BF66
:1059A000F0B540F6DB7091B016F020FB064640F6ED
:1059B000DC7016F01BFB030440F6DD7043EA06665C
:1059C00016F014FB074640F6DE7016F00FFB43F2AC
:1059D000AC74C0F2020406430FCC6D460FC50FCC69
:1059E0000FC50FCC0FC594E80F0085E80F0000200D
:1059F00016F0FCFAC24310A902F00F0201EB82027A
:105A0000034652F8405C85F07045ED4385EA231368
:105A100003F00F0301EB8303012053F8403C83EABA
:105A2000151516F0E3FAED4380EA050210A902F01D
:105A30000F0201EB8202034652F8402C82EA151550
:105A400085EA231303F00F0301EB8303022053F8CD
:105A5000403C83EA151516F0C9FAED4380EA0502C9
:105A600010A902F00F0201EB8202034652F8402C0B
:105A700082EA151585EA231303F00F0301EB830374
:105A8000032053F8403C83EA151516F0AFFAED43B6
:105A900080EA050210A902F00F0201EB8202034620
:105AA00052F8402C82EA151585EA231303F00F0300
:105AB00001EB8303042053F8403C83EA151516F0EC
:105AC00095FAED4380EA050210A902F00F0201EBFE
:105AD0008202034652F8402C82EA151585EA231308
:105AE00003F00F0301EB830343F6545053F8403C9B
:105AF0001321C0F2020083EA151546EA072418F0C4
:105B0000A7FD4EF2C000002310222146C2F2000081
:105B100016F02AF843F668500521C0F2020018F08A
:105B200097FDED434EF2C0002946C2F2000000236B
:105B3000102216F019F8A5424BD1002016F056FAA3
:105B400040F26853C2F201031870012016F04EFAB9
:105B500041F61063C2F201031870022016F046FAF3
:105B6000002307EE900AC4F27F3307EE103AF8EEF6
:105B7000676A4DF64453C6EE877AC2F200030320EB
:105B8000C3ED007A16F032FA002307EE900AC4F251
:105B9000FE2307EE103AF8EE676A4DF63853C6EE6C
:105BA000877AC2F200030420C3ED007A16F01EFAD1
:105BB00041F2E0631028C2F201038ABF002218708C
:105BC0001A704EF2C000C2F2000015F0BBFF11B017
:105BD000F0BD43F670502321C0F2020018F038FDEA
:105BE0004AF23473C2F2010340F244541A6800923C
:105BF000C2F2010441F6D47223780099C2F2010284
:105C000043F69450116043F01F031A21C0F20200C2
:105C1000237018F01DFD4EF2C000217800230A22E7
:105C2000C2F2000015F0A0FF4EF2C000C2F2000068
:105C300015F088FFC5E700BF30B543F2AC74C0F281
:105C400002040FCC91B06D460FC50FCC0FC50FCC21
:105C50000FC594E80F0085E80F00002016F0C6F984
:105C6000C24310A902F00F0201EB8202034652F870
:105C7000404C84F07044E44384EA231303F00F03A0
:105C800001EB8303012053F8403C83EA141416F01F
:105C9000ADF9E44380EA040210A902F00F0201EB1F
:105CA0008202034652F8402C82EA141484EA231339
:105CB00003F00F0301EB8303022053F8403C83EA17
:105CC000141416F093F9E44380EA040210A902F0D8
:105CD0000F0201EB8202034652F8402C82EA1414B0
:105CE00084EA231303F00F0301EB8303032053F82B
:105CF000403C83EA141416F079F9E44380EA040284
